{
    "contractName": "TasksContract",
    "abi": [
        {
            "inputs": [],
            "stateMutability": "nonpayable",
            "type": "constructor"
        },
        {
            "anonymous": false,
            "inputs": [
                {
                    "indexed": false,
                    "internalType": "uint256",
                    "name": "id",
                    "type": "uint256"
                },
                {
                    "indexed": false,
                    "internalType": "string",
                    "name": "title",
                    "type": "string"
                },
                {
                    "indexed": false,
                    "internalType": "string",
                    "name": "description",
                    "type": "string"
                },
                {
                    "indexed": false,
                    "internalType": "bool",
                    "name": "done",
                    "type": "bool"
                },
                {
                    "indexed": false,
                    "internalType": "uint256",
                    "name": "createdAt",
                    "type": "uint256"
                }
            ],
            "name": "TaskCreated",
            "type": "event"
        },
        {
            "inputs": [
                {
                    "internalType": "string",
                    "name": "_title",
                    "type": "string"
                },
                {
                    "internalType": "string",
                    "name": "_description",
                    "type": "string"
                }
            ],
            "name": "createTask",
            "outputs": [],
            "stateMutability": "nonpayable",
            "type": "function"
        },
        {
            "inputs": [
                {
                    "internalType": "uint256",
                    "name": "",
                    "type": "uint256"
                }
            ],
            "name": "tasks",
            "outputs": [
                {
                    "internalType": "uint256",
                    "name": "id",
                    "type": "uint256"
                },
                {
                    "internalType": "string",
                    "name": "title",
                    "type": "string"
                },
                {
                    "internalType": "string",
                    "name": "description",
                    "type": "string"
                },
                {
                    "internalType": "bool",
                    "name": "done",
                    "type": "bool"
                },
                {
                    "internalType": "uint256",
                    "name": "createdAt",
                    "type": "uint256"
                }
            ],
            "stateMutability": "view",
            "type": "function"
        },
        {
            "inputs": [],
            "name": "tasksCounter",
            "outputs": [
                {
                    "internalType": "uint256",
                    "name": "",
                    "type": "uint256"
                }
            ],
            "stateMutability": "view",
            "type": "function"
        },
        {
            "inputs": [
                {
                    "internalType": "uint256",
                    "name": "_id",
                    "type": "uint256"
                }
            ],
            "name": "toggleDone",
            "outputs": [],
            "stateMutability": "nonpayable",
            "type": "function"
        }
    ],
    "bytecode": "6080604052600080553480156200001557600080fd5b506200006e6040518060400160405280600f81526020016e6d69207072696d657220746172656160881b81525060405180604001604052806007815260200166656a656d706c6f60c81b8152506200007460201b60201c565b6200030d565b600080549080620000858362000212565b90915550506040805160a08101825260008054808352602080840187815284860187905260608501849052426080860152918352600180825294909220835181559051805193949193620000e2939285019291909101906200016c565b5060408201518051620001009160028401916020909101906200016c565b50606082015160038201805460ff1916911515919091179055608090910151600490910155600080546040517f6549102bed7d1bb5ec529ee14e2ca60ffc1f47f66d4cc6ca713220613cc64c25926200016092918691869142906200028c565b60405180910390a15050565b8280546200017a90620002d0565b90600052602060002090601f0160209004810192826200019e5760008555620001e9565b82601f10620001b957805160ff1916838001178555620001e9565b82800160010185558215620001e9579182015b82811115620001e9578251825591602001919060010190620001cc565b50620001f7929150620001fb565b5090565b5b80821115620001f75760008155600101620001fc565b60006000198214156200023557634e487b7160e01b600052601160045260246000fd5b5060010190565b6000815180845260005b81811015620002645760208185018101518683018201520162000246565b8181111562000277576000602083870101525b50601f01601f19169290920160200192915050565b85815260a060208201526000620002a760a08301876200023c565b8281036040840152620002bb81876200023c565b94151560608401525050608001529392505050565b600181811c90821680620002e557607f821691505b602082108114156200030757634e487b7160e01b600052602260045260246000fd5b50919050565b6107aa806200031d6000396000f3fe608060405234801561001057600080fd5b506004361061004c5760003560e01c8063292a45851461005157806385c3e723146100665780638d97767214610082578063d81ef739146100a6575b600080fd5b61006461005f366004610606565b6100b9565b005b61006f60005481565b6040519081526020015b60405180910390f35b61009561009036600461066a565b6101a9565b6040516100799594939291906106d0565b6100646100b436600461066a565b6102eb565b6000805490806100c883610710565b90915550506040805160a08101825260008054808352602080840187815284860187905260608501849052426080860152918352600180825294909220835181559051805193949193610123939285019291909101906104ca565b506040820151805161013f9160028401916020909101906104ca565b50606082015160038201805460ff1916911515919091179055608090910151600490910155600080546040517f6549102bed7d1bb5ec529ee14e2ca60ffc1f47f66d4cc6ca713220613cc64c259261019d92918691869142906106d0565b60405180910390a15050565b6001602081905260009182526040909120805491810180546101ca90610739565b80601f01602080910402602001604051908101604052809291908181526020018280546101f690610739565b80156102435780601f1061021857610100808354040283529160200191610243565b820191906000526020600020905b81548152906001019060200180831161022657829003601f168201915b50505050509080600201805461025890610739565b80601f016020809104026020016040519081016040528092919081815260200182805461028490610739565b80156102d15780601f106102a6576101008083540402835291602001916102d1565b820191906000526020600020905b8154815290600101906020018083116102b457829003601f168201915b505050506003830154600490930154919260ff1691905085565b6000818152600160208181526040808420815160a0810190925280548252928301805491939284019161031d90610739565b80601f016020809104026020016040519081016040528092919081815260200182805461034990610739565b80156103965780601f1061036b57610100808354040283529160200191610396565b820191906000526020600020905b81548152906001019060200180831161037957829003601f168201915b505050505081526020016002820180546103af90610739565b80601f01602080910402602001604051908101604052809291908181526020018280546103db90610739565b80156104285780601f106103fd57610100808354040283529160200191610428565b820191906000526020600020905b81548152906001019060200180831161040b57829003601f168201915b5050509183525050600382015460ff161515602080830191909152600490920154604091820152606083018051159052600085815260018084529190208351815583830151805194955085949193610485938501929101906104ca565b50604082015180516104a19160028401916020909101906104ca565b50606082015160038201805460ff19169115159190911790556080909101516004909101555050565b8280546104d690610739565b90600052602060002090601f0160209004810192826104f8576000855561053e565b82601f1061051157805160ff191683800117855561053e565b8280016001018555821561053e579182015b8281111561053e578251825591602001919060010190610523565b5061054a92915061054e565b5090565b5b8082111561054a576000815560010161054f565b634e487b7160e01b600052604160045260246000fd5b600082601f83011261058a57600080fd5b813567ffffffffffffffff808211156105a5576105a5610563565b604051601f8301601f19908116603f011681019082821181831017156105cd576105cd610563565b816040528381528660208588010111156105e657600080fd5b836020870160208301376000602085830101528094505050505092915050565b6000806040838503121561061957600080fd5b823567ffffffffffffffff8082111561063157600080fd5b61063d86838701610579565b9350602085013591508082111561065357600080fd5b5061066085828601610579565b9150509250929050565b60006020828403121561067c57600080fd5b5035919050565b6000815180845260005b818110156106a95760208185018101518683018201520161068d565b818111156106bb576000602083870101525b50601f01601f19169290920160200192915050565b85815260a0602082015260006106e960a0830187610683565b82810360408401526106fb8187610683565b94151560608401525050608001529392505050565b600060001982141561073257634e487b7160e01b600052601160045260246000fd5b5060010190565b600181811c9082168061074d57607f821691505b6020821081141561076e57634e487b7160e01b600052602260045260246000fd5b5091905056fea2646970667358221220e5836a82f3c6fa7afd9cc25dd24c6d02ca00faf8ff31de6a14898fc1d9c2b26e64736f6c634300080c0033",
    "sourcePath": "c:/Users/arcec/Documents/myfirstcontract/contracts/TasksContract.sol",
    "compiler": {
        "name": "solc",
        "version": "0.8.12+commit.f00d7308"
    },
    "functionHashes": {
        "createTask(string,string)": "292a4585",
        "tasks(uint256)": "8d977672",
        "tasksCounter()": "85c3e723",
        "toggleDone(uint256)": "d81ef739"
    },
    "gasEstimates": {
        "creation": {
            "codeDepositCost": "392400",
            "executionCost": "infinite",
            "totalCost": "infinite"
        },
        "external": {
            "createTask(string,string)": "infinite",
            "tasks(uint256)": "infinite",
            "tasksCounter()": "2284",
            "toggleDone(uint256)": "infinite"
        }
    }
}